:0300000002088F64
:0C088F00787FE4F6D8FD7581270208D6BA
:10066600B0B4BCFCD1A1D4F1BBF5CEEFA3BA202027
:100676002000A2D9BFF3C8AACBAE2831D4AA29201C
:100686002000A2DABAECB2E82833D4AA2920202026
:1006960000A2DBC2CCB2E82834D4AA29202000A2CA
:1006A600DCC6A1BEC62835D4AA29202000A2DDBA00
:1006B600ECC5A32836D4AA29202000D1A1B6A8BA11
:1006C600F3CDB6C8EBD3B2B1D200CDB6B1D2B2BB80
:1006D600D7E3B9BAC2F2CAA7B0DC00CDCBC7AEA386
:1006E600BA20202020D4AA00D2D1D1A1BFF3C8AA13
:1006F600CBAE00BBF5CEEFBCDBB8F13A31D4AA00E5
:10070600CDB6B1D2BDF0B6EE3A2020202020D4AA34
:1007160000B9E6B6A8CAB1BCE4A3BA00BFF3C8AA3A
:10072600CBAEB9BAC2F2B3C9B9A600D5D2C7AEA389
:10073600BA20202020D4AA00D2D1D1A1BAECB2E8A6
:1007460000BBF5CEEFBCDBB8F13A33D4AA00BAEC65
:10075600B2E8B9BAC2F2B3C9B9A600D2D1D1A1C220
:10076600CCB2E800BBF5CEEFBCDBB8F13A34D4AA84
:1007760000C2CCB2E8B9BAC2F2B3C9B9A600D2D1A6
:10078600D1A1C6A1BEC600BBF5CEEFBCDBB8F13A1F
:1007960035D4AA00C6A1BEC6C2F2B3C9B9A600D254
:1007A600D1D1A1BAECC5A300BBF5CEEFBCDBB8F145
:1007B6003A36D4AA00BAECC5A3C2F2B3C9B9A600A8
:100AFE0001140001231E011300010E00010F050158
:100B0E0010050111050112000C1568656C6C6F2043
:060B1E00776F726C6400A9
:10099A007BFF120A5F7F0A7E001209D1E4FD7F0302
:1009AA00120A767BFF7A077906120A5F7F0A7E00AF
:1009BA001209D1E4FD7F04120A767A0779177BFFC0
:0709CA00120A5F7F0A7E00A4
:1009D100D3EF9400EE94004015E4FDFC0DBD000141
:0E09E1000CED64504C70F5EF1F70E51E80E2C7
:0109EF0022E5
:100B2500E4FEFDEE25E0FEEF30E003430601EFC3F2
:080B350013FF0DBD08EDAF0632
:010B3D002295
:0A0B7D007F06120B627F0C020B6270
:030B700075231ECC
:0A0B73007F30120B627F01020B625B
:0E0B5400D285C286120B258FA0D287C28722BF
:0E0B6200C285C286120B258FA0D287C28722C1
:0F000E0075A0FFC285D286D2872087FDC28722C8
:040A7200E4FD7F011F
:100A7600AC05AB07BB0107EC4480FF120B62BB025F
:100A860007EC4490FF120B62BB0309EC4480240878
:100A9600FF120B62BB0409EC44902408FF120B62A0
:010AA600222D
:100A3600E51375F00A842430F50875092EE513755B
:100A4600F00A84E5F02430F50AE4F50B7D037F0215
:090A5600120A767B007A0079088F
:100A5F001209F0FF600C120B54740129F9E43AFAF1
:030A6F0080EE22F4
:1007C600E522C3940A5068120A727A0679661209FB
:1007D600C8E4FD7F02120A767BFF7A067978120951
:1007E600CAE50E2430F508E4F5097D07120A54E43B
:1007F600FD7F03120A767BFF7A0679881209CAE51D
:100806000F2430F508E4F5097D077F03120A56E444
:10081600FD7F04120A767BFF7A0679971209CAE5EC
:10082600102430F508E4F5097D077F04120A56E521
:1008360022B40A03120B73E522C3940B404A120A30
:10084600727BFF7A0679A51209CAE5112430F508EC
:10085600E4F5097D077F01120A56E4FD7F02120ABC
:10086600767BFF7A0679B31209CAE5122430F508B9
:10087600E4F5097D07120A54E4FD7F03120A767B2C
:09088600FF7A0679C11209CA22A9
:1000260020B20A30B2FD1209CD050E803220B30A85
:1000360030B3FD1209CD050F802520B40A30B4FD7A
:100046001209CD0510801820B50A30B5FD1209CD6C
:100056000511800B20B60830B6FD1209CD05123009
:100066008003020181E50ED394005003020181153D
:100076000E120B70E523B40602C295E523B4050201
:10008600D295E5237037C39513400302017E120B08
:1000960073120A727BFF7A0679D01209CAE4FD7FD1
:1000A60002120A767BFF7A0679E11209CA120A362B
:1000B6007F707E171209D1E4F51302017E120A72CF
:1000C6007BFF7A0679EE1209CAE4FD7F02120A76F0
:1000D6007A0679F912099AE524700E7D057F0312D6
:1000E6000A567F647E001209D1E524B401107D070B
:1000F6007F04120A767B007A0079081209CA2090DA
:100106000C3090FD1209CD74642513F51320910C63
:100116003091FD1209CD74322513F51320920C305F
:1001260092FD1209CD740A2513F513E513C3940A3B
:10013600500302007A120B73120A727BFF7A077958
:10014600221209CAE4FD7F02120A767BFF7A07793A
:10015600311209CAE51324F6F52175F00A84243014
:10016600F50875092EE521120A45C2947F707E179F
:100176001209D1D294E4F513120B733081030202F3
:10018600ABE50FD3940050030202AB150F120B70B0
:10019600E523B40602C295E523B40502D295E5230C
:1001A6007045C3951350047F0180027F00C3EF643E
:1001B60080949E40030202A8120B73120A727BFF00
:1001C6007A0679D01209CAE4FD7F02120A767BFF0D
:1001D6007A0679E11209CA120A367F707E17120969
:1001E600D1E4F5130202A8120A727BFF7A07793E60
:1001F6001209CAE4FD7F02120A767A0779471209C4
:100206009AE524700E7D057F03120A567F647E00F0
:100216001209D1E524B401107D077F04120A767B0A
:10022600007A0079081209CA20900C3090FD120954
:10023600CD74642513F51320910C3091FD1209CD70
:1002460074322513F51320920C3092FD1209CD74E9
:100256000A2513F513E513C3941E500302019612E3
:100266000B73120A727BFF7A0779541209CAE4FDEE
:100276007F02120A767BFF7A0779311209CAE513E3
:1002860024E2F52175F00A842430F50875092EE577
:1002960021120A45C2947F707E171209D1D294E4C6
:1002A600F513120B733082030203DAE510D39400C0
:1002B60050030203DA151075231E120B73E523B4DF
:1002C6000602C295E523B40502D295E5237045C31F
:1002D600951350047F0180027F00C3EF648094A8C9
:1002E60040030203D7120B73120A727BFF7A067958
:1002F600D01209CAE4FD7F02120A767BFF7A0679DC
:10030600E11209CA120A367F707E171209D1E4F586
:10031600130203D7120A727BFF7A0779611209CAA0
:10032600E4FD7F02120A767BFF7A07796A12099C3E
:10033600E524700E7D057F03120A567F647E001247
:1003460009D1E524B401107D077F04120A767B00EB
:100356007A0079081209CA20900C3090FD1209CD56
:1003660074642513F51320910C3091FD1209CD7498
:10037600322513F51320920C3092FD1209CD740A22
:100386002513F513E513C3942850030202C3120B79
:1003960073120A727BFF7A0779771209CAE4FD7F26
:1003A60002120A767BFF7A0779311209CAE513240D
:1003B600D8F52175F00A842430F50875092EE52153
:1003C600120A45C2947F707E171209D1D294E4F5C1
:1003D60013120B73308303020509E511D394005001
:1003E60003020509151175231E120B73E523B406C6
:1003F60002C295E523B40502D295E5237045C3955F
:100406001350047F0180027F00C3EF648094B240E2
:1004160003020506120B73120A727BFF7A0679D065
:100426001209CAE4FD7F02120A767BFF7A0679E199
:100436001209CA120A367F707E171209D1E4F51323
:10044600020506120A727BFF7A0779841209CAE44A
:10045600FD7F02120A767BFF7A07798D12099CE5E9
:1004660024700E7D057F03120A567F647E001209F2
:10047600D1E524B401107D077F04120A767B007A49
:100486000079081209CA20900C3090FD1209CD742B
:10049600642513F51320910C3091FD1209CD7432A9
:1004A6002513F51320920C3092FD1209CD740A25FE
:1004B60013F513E513C3943250030203F2120B73C0
:1004C600120A727BFF7A07799A1209CAE4FD7F0243
:1004D600120A767BFF7A0779311209CAE51324CE10
:1004E600F52175F00A842430F50875092EE52112E8
:1004F6000A45C2947F707E171209D1D294E4F5138F
:10050600120B73308403020665E512D39400500380
:10051600020665151275231E120B73E523B4060237
:10052600C295E523B40502D295E5237045C395131C
:1005360050047F0180027F00C3EF648094BC4003B7
:10054600020662120B73120A727BFF7A0679D012C8
:1005560009CAE4FD7F02120A767BFF7A0679E11268
:1005660009CA120A367F707E171209D1E4F5130202
:100576000662120A727BFF7A0779A51209CAE4FDA0
:100586007F02120A767BFF7A0779AE12099CE52470
:10059600700E7D057F03120A567F647E001209D114
:1005A600E524B401107D077F04120A767B007A00E9
:1005B60079081209CA20900C3090FD1209CD746496
:1005C6002513F51320910C3091FD1209CD743225B7
:1005D60013F51320920C3092FD1209CD740A2513DF
:1005E600F51320900C3090FD1209CD74642513F597
:1005F6001320910C3091FD1209CD74322513F51399
:1006060020920C3092FD1209CD740A2513F513E5DC
:1006160013C3943C5003020521120B73120A727B1A
:10062600FF7A0779BB1209CAE4FD7F02120A767BBC
:10063600FF7A0779311209CAE51324C4F52175F04A
:100646000A842430F50875092EE521120A45C2945C
:100656007F707E171209D1D294E4F513120B732220
:100B3E00758921759850758DFD858D8BE4F587D25D
:060B4E00AFD2ACD28E22F2
:080003008F993099FDC299228A
:060AA7008B258A26892739
:100AAD00E4FDFCAB25AA26A9278D828C83120A09A9
:100ABD0060150DEDAE0470010C14F5828E83120AD3
:070ACD0009FF12000380DCA9
:010AD40022FF
:0300230002001DBB
:06001D00309802C2983287
:100AD500758901758C3C758AB0D2AFD2A9D28C12BA
:100AE5000B7D120B73120B3E1200267B007A0079E8
:090AF50015120AA71207C680EFD2
:03000B0002091BCC
:10091B00C0E0C0F0C0D0758C3C758AB00514E514EE
:10092B00640A7064E5247019E52375F00A84243099
:10093B00F508E52375F00A84E5F02430F509750A0E
:10094B0000E524B40119E51375F00A842430F50889
:10095B0075092EE51375F00A84E5F02430F50A7558
:10096B000B00750C00751400E523700375231E0531
:10097B0024E524B402051523752400751400052203
:0F098B00E522B41403752200D0D0D0F0D0E032B2
:10089B00020AD5E493A3F8E493A34003F68001F294
:1008AB0008DFF48029E493A3F85407240CC8C3335E
:1008BB00C4540F4420C8834004F456800146F6DF2D
:1008CB00E4800B0102040810204080900AFEE47EB5
:1008DB00019360BCA3FF543F30E509541FFEE49322
:1008EB00A360010ECF54C025E060A840B8E493A3E9
:1008FB00FAE493A3F8E493A3C8C582C8CAC583CA14
:10090B00F0A3C8C582C8CAC583CADFE9DEE780BECB
:010B240000D0
:1009F000BB010689828A83E0225002E722BBFE0205
:090A0000E32289828A83E4932237
:100A0900BB010CE58229F582E5833AF583E02250A2
:100A190006E92582F8E622BBFE06E92582F8E222EC
:0D0A2900E58229F582E5833AF583E4932206
:00000001FF
