:03000000020C1AD5
:0C0C1A00787FE4F6D8FD758107020C61BC
:10069500B0B4BCFCD1A1D4F1BBF5CEEFA3BA2020F8
:1006A5002000A2D9BFF3C8AACBAE2831D4AA2920ED
:1006B5002000A2DABAECB2E82833D4AA29202020F7
:1006C50000A2DBC2CCB2E82834D4AA29202000A29B
:1006D500DCC6A1BEC62835D4AA29202000A2DDBAD1
:1006E500ECC5A32836D4AA29202000D1A1B6A8BAE2
:1006F500F3CDB6C8EBD3B2B1D200CDB6B1D2B2BB51
:10070500D7E3B9BAC2F2CAA7B0DC00CDCBC7AEA356
:10071500BA20202020D4AA00D2D1D1A1BFF3C8AAE3
:10072500CBAE00BBF5CEEFBCDBB8F13A31D4AA00B5
:10073500CDB6B1D2BDF0B6EE3A2020202020D4AA05
:1007450000B9E6B6A8CAB1BCE4A3BA00BFF3C8AA0B
:10075500CBAEB9BAC2F2B3C9B9A600D5D2C7AEA35A
:10076500BA20202020D4AA00D2D1D1A1BAECB2E877
:1007750000BBF5CEEFBCDBB8F13A33D4AA00BAEC36
:10078500B2E8B9BAC2F2B3C9B9A600D2D1D1A1C2F1
:10079500CCB2E800BBF5CEEFBCDBB8F13A34D4AA55
:1007A50000C2CCB2E8B9BAC2F2B3C9B9A600D2D177
:1007B500D1A1C6A1BEC600BBF5CEEFBCDBB8F13AF0
:1007C50035D4AA00C6A1BEC6C2F2B3C9B9A600D225
:1007D500D1D1A1BAECC5A300BBF5CEEFBCDBB8F116
:1007E5003A36D4AA00BAECC5A3C2F2B3C9B9A60079
:0607F500000000000000FE
:100AD000410022004100701E4100210041001C0025
:100AE00041001D0541001E0541001F054100200079
:100AF0004C002368656C6C6F20776F726C640045E6
:100B0000007241540D0A004E006041542B4349507D
:100B10004D55583D310D0A0056004A41542B43496A
:100B2000505345525645523D312C383030380D0A1D
:100B30000051003941542B43495053454E443D30F8
:100B40002C350D0A0051000A41542B43495053459E
:100B50004E443D302C310D0A0041001B004A002F4D
:100B60000000000000000000000041000300410000
:070B7000000042000100003B
:100CA6007BFF120D7D7F0A7E00120CDDE4FD7F03C3
:100CB600120D947BFF7A077935120D7D7F0A7E002F
:100CC600120CDDE4FD7F04120D947A0779467BFF52
:070CD600120D7D7F0A7E0074
:100CDD00D3EF9400EE94004015E4FDFC0DBD000132
:0E0CED000CED64504C70F5EF1F70E51E80E2B8
:010CFB0022D6
:100E5B00E4FEFDEE25E0FEEF30E004EE4401FEEF94
:0A0E6B00C313FF0DEDB408EBAF0652
:010E7500225A
:0A0EB7007F06120EA97F0C020EA99F
:09000E00E014F0900070741EF083
:0A0017007F30120EA97F01020EA92E
:0E0E9B00D285C286120E5B8FA0D287C287223C
:0E0EA900C285C286120E5B8FA0D287C287223E
:0F0E8C0075A0FFC285D286D2872087FDC287223C
:040D9000E4FD7F01FE
:100D9400AC05AB07EBB40107EC4480FF120EA9EBE2
:100DA400B40207EC4490FF120EA9EBB40309EC441F
:100DB400802408FF120EA9EBB40409EC4490240823
:050DC400FF120EA92240
:100D4E0090006EF0E0FD75F00A842430900004F0FF
:100D5E00A3742EF0ED75F00A84E5F02430A3F0E4D0
:0F0D6E00A3F07D037F02120D947B017A007904BC
:100D7D001208F1FF600C120E9B740129F9E43AFA86
:030D8D0080EE22D3
:1009370090006FE0C3940A5074120D907A0679956F
:10094700120CD4E4FD7F02120D947BFF7A0679A77F
:10095700120CD690001CE02430900004F0E4A3F0C1
:100967007D07120D72E4FD7F03120D947BFF7A065B
:1009770079B7120CD690001DE02430900004F0E403
:10098700A3F07D077F03120D74E4FD7F04120D941D
:100997007BFF7A0679C6120CD690001EE0243090B1
:1009A7000004F0E4A3F07D077F04120D7490006F3C
:1009B700E0B40A0312001790006FE0C3940B405293
:1009C700120D907BFF7A0679D4120CD690001FE0A7
:1009D7002430900004F0E4A3F07D077F01120D742A
:1009E700E4FD7F02120D947BFF7A0679E2120CD6A2
:1009F700900020E02430900004F0E4A3F07D07127B
:100A07000D72E4FD7F03120D947BFF7A0679F012D5
:030A17000CD622D8
:1000260020B20B30B2FD120CD990001C803620B3E2
:100036000B30B3FD120CD990001D802820B40B3074
:10004600B4FD120CD990001E801A20B50B30B5FDF8
:10005600120CD990001F800C20B60C30B6FD120C85
:10006600D9900020E004F030800302019290001C39
:10007600E0D39400500302019212000E900070E04B
:10008600FFB40602C295EFB40502D295EF70419017
:100096000021E0FFE4C39F400302018F1200171204
:1000A6000D907BFF7A0679FF120CD6E4FD7F0212D3
:1000B6000D947BFF7A077910120CD6900021120D51
:1000C600527F707E17120CDDE4900021F002018F42
:1000D600120D907BFF7A07791D120CD6E4FD7F0284
:1000E600120D947A077928120CA6900071E0700E12
:1000F6007D057F03120D747F647E00120CDD900077
:1001060071E0B401107D077F04120D947B017A0023
:100116007904120CD620900D3090FD120CD9900067
:1001260021E02464F020910D3091FD120CD990004D
:1001360021E02432F020920D3092FD120CD990006D
:1001460021E0240AF0900021E0C3940A5003020043
:1001560082120017120D907BFF7A077951120CD686
:10016600E4FD7F02120D947BFF7A077960120CD6AC
:10017600900021E024F6120D4EC2947F707E171275
:100186000CDDD294E4900021F012001730810302B6
:1001960002C590001DE0D3940050030202C5120070
:1001A6000E900070E0FFB40602C295EFB40502D2CD
:1001B60095EF704F900021E0FFE4C39F50047F014C
:1001C60080027F00C3EF6480949E40030202C21245
:1001D6000017120D907BFF7A0679FF120CD6E4FD0C
:1001E6007F02120D947BFF7A077910120CD69000CD
:1001F60021120D527F707E17120CDDE4900021F063
:100206000202C2120D907BFF7A07796D120CD6E4BA
:10021600FD7F02120D947A077976120CA690007172
:10022600E0700E7D057F03120D747F647E00120C54
:10023600DD900071E0B401107D077F04120D947B00
:10024600017A007904120CD620900D3090FD120C24
:10025600D9900021E02464F020910D3091FD120C1C
:10026600D9900021E02432F020920D3092FD120C3C
:10027600D9900021E0240AF0900021E0C3941E509A
:10028600030201A7120017120D907BFF7A077983EC
:10029600120CD6E4FD7F02120D947BFF7A0779607B
:1002A600120CD6900021E024E2120D4EC2947F700B
:1002B6007E17120CDDD294E4900021F01200173064
:1002C60082030203FA90001EE0D394005003020357
:1002D600FA12000E900070E0FFB40602C295EFB469
:1002E6000502D295EF704F900021E0FFE4C39F50C6
:1002F600047F0180027F00C3EF648094A84003025C
:1003060003F7120017120D907BFF7A0679FF120C85
:10031600D6E4FD7F02120D947BFF7A077910120C4A
:10032600D6900021120D527F707E17120CDDE490DC
:100336000021F00203F7120D907BFF7A07799012E5
:100346000CD6E4FD7F02120D947BFF7A0779991291
:100356000CA8900071E0700E7D057F03120D747F6E
:10036600647E00120CDD900071E0B401107D077F01
:1003760004120D947B017A007904120CD620900D9C
:100386003090FD120CD9900021E02464F020910DEC
:100396003091FD120CD9900021E02432F020920D0C
:1003A6003092FD120CD9900021E0240AF090002131
:1003B600E0C3942850030202DA120017120D907B54
:1003C600FF7A0779A6120CD6E4FD7F02120D947B04
:1003D600FF7A077960120CD6900021E024D8120D1E
:1003E6004EC2947F707E17120CDDD294E4900021E9
:1003F600F012001730830302052F90001FE0D394FC
:1004060000500302052F12000E900070E0FFB406A4
:1004160002C295EFB40502D295EF704F900021E02D
:10042600FFE4C39F50047F0180027F00C3EF648016
:1004360094B2400302052C120017120D907BFF7A2E
:100446000679FF120CD6E4FD7F02120D947BFF7A2B
:10045600077910120CD6900021120D527F707E176C
:10046600120CDDE4900021F002052C120D907BFFAA
:100476007A0779B3120CD6E4FD7F02120D947BFF46
:100486007A0779BC120CA8900071E0700E7D057F8A
:1004960003120D747F647E00120CDD900071E0B4CF
:1004A60001107D077F04120D947B017A00790412F6
:1004B6000CD620900D3090FD120CD9900021E0242E
:1004C60064F020910D3091FD120CD9900021E024AA
:1004D60032F020920D3092FD120CD9900021E024CA
:1004E6000AF0900021E0C39432500302040F120078
:1004F60017120D907BFF7A0779C9120CD6E4FD7F9F
:1005060002120D947BFF7A077960120CD6900021B7
:10051600E024CE120D4EC2947F707E17120CDDD2EF
:1005260094E4900021F012001730840302069490A0
:100536000020E0D39400500302069412000E9000AF
:1005460070E0FFB40602C295EFB40502D295EF70D3
:100556004F900021E0FFE4C39F50047F0180027F9B
:1005660000C3EF648094BC40030206911200171288
:100576000D907BFF7A0679FF120CD6E4FD7F0212FE
:100586000D947BFF7A077910120CD6900021120D7C
:10059600527F707E17120CDDE4900021F002069166
:1005A600120D907BFF7A0779D4120CD6E4FD7F02F8
:1005B600120D947BFF7A0779DD120CA8900071E08A
:1005C600700E7D057F03120D747F647E00120CDDB4
:1005D600900071E0B401107D077F04120D947B0139
:1005E6007A007904120CD620900D3090FD120CD9A9
:1005F600900021E02464F020910D3091FD120CD979
:10060600900021E02432F020920D3092FD120CD998
:10061600900021E0240AF020900D3090FD120CD9B4
:10062600900021E02464F020910D3091FD120CD948
:10063600900021E02432F020920D3092FD120CD968
:10064600900021E0240AF0900021E0C3943C50037E
:10065600020544120017120D907BFF7A0779EA1201
:100666000CD6E4FD7F02120D947BFF7A07796012A7
:100676000CD6900021E024C4120D4EC2947F707EE9
:0F06860017120CDDD294E4900021F0120017221D
:100E7600758921759850758DFD858D8BE4F587D222
:060E8600AFD2ACD28E22B7
:080003008F993099FDC299228A
:0B0DC90090007DEBF0A3EAF0A3E9F03E
:100DD400E4FDFC90007DE0FBA3E0FAA3E0F98D8242
:100DE4008C8312090A60150DEDAE0470010C14F524
:0C0DF400828E8312090AFF12000380D7D0
:010E000022CF
:100E0100900000E004F0E0F4702CE4900000F09019
:100E1100001BE014600F146014240270197B017A26
:100E2100007972800E7B017A00796080067B017AFD
:060E310000794A120DC910
:010E37002298
:100CFC0078777C007D017BFF7A0779F57E007F0693
:100D0C001208CB90001CE0900077F090001DE09052
:100D1C000078F090001EE0900079F090001FE090B9
:100D2C00007AF0900020E090007BF0900003E060EF
:100D3C001090002FE0B401097B017A007977120D35
:010D4C00C9DD
:010D4D002283
:03002300020B7855
:100B7800C0E0C0F0C083C082C0D075D000C000C043
:0D0B880001C002C003C004C005C006C007C4
:100B9500309867C298AF99EFB4230D900003E4F045
:100BA500900001F0A3F0802DEFB42109900001A37E
:100BB500E0A3F08020900001E0FCA3E0242FF58263
:100BC50074003CF583EFF0900002E004F0700690AD
:100BD5000001E004F0900001E07004A3E0643270CD
:100BE50006900001F0A3F0EFB44F0F90001BE0C397
:0A0BF50094035003E004F0120937E6
:100BFF00D007D006D005D004D003D002D001D0004A
:0B0C0F00D0D0D082D083D0F0D0E032F3
:100E3800758901758C3C758AB0D2AFD2A9D28C1253
:100E48000EB7120017120E76120026120E01120C9F
:030E5800FC80F526
:03000B00020A1ACC
:100A1A00C0E0C0F0C083C082C0D075D000C004C09E
:100A2A0005C006758C3C758AB0900022E004F0E09F
:100A3A00640A6003020ABF900071E0FC701D900016
:100A4A0070E0FE75F00A842430900004F0EE75F030
:100A5A000A84E5F02430A3F0A3E4F0ECB4011E907C
:100A6A000021E0FD75F00A842430900004F0A3749C
:100A7A002EF0ED75F00A84E5F02430A3F09000071B
:100A8A00E4F0A3F0900022F0900070E07003741E6E
:100A9A00F0900071E004F0E0B40209900070E014F4
:100AAA00F0A3E4F0900022E4F090006FE004F0E09C
:100ABA00B41402E4F0D006D005D004D0D0D082D04D
:060ACA0083D0F0D0E03201
:100C2600020E38E493A3F8E493A34003F68001F29E
:100C360008DFF48029E493A3F85407240CC8C333CF
:100C4600C4540F4420C8834004F456800146F6DF9E
:100C5600E4800B0102040810204080900AD0E47E54
:100C6600019360BCA3FF543F30E509541FFEE49393
:100C7600A360010ECF54C025E060A840B8E493A35A
:100C8600FAE493A3F8E493A3C8C582C8CAC583CA85
:100C9600F0A3C8C582C8CAC583CADFE9DEE780BE3D
:010B7700007D
:1007FB00E709F608DFFA8046E709F208DFFA803EE0
:10080B0088828C83E709F0A3DFFA8032E309F608CC
:10081B00DFFA8078E309F208DFFA807088828C8334
:10082B00E309F0A3DFFA806489828A83E0A3F608E8
:10083B00DFFA805889828A83E0A3F208DFFA804CC2
:10084B0080D280FA80C680D4806980F28033801099
:10085B0080A680EA809A80A880DA80E280CA803302
:10086B0089828A83ECFAE493A3C8C582C8CCC5837A
:10087B00CCF0A3C8C582C8CCC583CCDFE9DEE7804A
:10088B000D89828A83E493A3F608DFF9ECFAA9F0C9
:10089B00EDFB2289828A83ECFAE0A3C8C582C8CC1F
:1008AB00C583CCF0A3C8C582C8CCC583CCDFEADE38
:1008BB00E880DB89828A83E493A3F208DFF980CC9A
:1008CB0088F0EF60010E4E60C388F0ED2402B40493
:1008DB000050B9F582EB2402B4040050AF2323453A
:0608EB00822390084B730C
:1008F100BB010689828A83E0225002E722BBFE0205
:09090100E32289828A83E4932237
:10090A00BB010CE58229F582E5833AF583E02250A2
:10091A0006E92582F8E622BBFE06E92582F8E222EC
:0D092A00E58229F582E5833AF583E4932206
:00000001FF
