:030000000208777C
:0C087700787FE4F6D8FD7581180208BEF9
:10064E00B0B4BCFCD1A1D4F1BBF5CEEFA3BA20203F
:10065E002000A2D9BFF3C8AACBAE2831D4AA292034
:10066E002000A2DABAECB2E82833D4AA292020203E
:10067E0000A2DBC2CCB2E82834D4AA29202000A2E2
:10068E00DCC6A1BEC62835D4AA29202000A2DDBA18
:10069E00ECC5A32836D4AA29202000D1A1B6A8BA29
:1006AE00F3CDB6C8EBD3B2B1D200CDB6B1D2B2BB98
:1006BE00D7E3B9BAC2F2CAA7B0DC00CDCBC7AEA39E
:1006CE00BA20202020D4AA00D2D1D1A1BFF3C8AA2B
:1006DE00CBAE00BBF5CEEFBCDBB8F13A31D4AA00FD
:1006EE00CDB6B1D2BDF0B6EE3A2020202020D4AA4D
:1006FE0000B9E6B6A8CAB1BCE4A3BA00BFF3C8AA53
:10070E00CBAEB9BAC2F2B3C9B9A600D5D2C7AEA3A1
:10071E00BA20202020D4AA00D2D1D1A1BAECB2E8BE
:10072E0000BBF5CEEFBCDBB8F13A33D4AA00BAEC7D
:10073E00B2E8B9BAC2F2B3C9B9A600D2D1D1A1C238
:10074E00CCB2E800BBF5CEEFBCDBB8F13A34D4AA9C
:10075E0000C2CCB2E8B9BAC2F2B3C9B9A600D2D1BE
:10076E00D1A1C6A1BEC600BBF5CEEFBCDBB8F13A37
:10077E0035D4AA00C6A1BEC6C2F2B3C9B9A600D26C
:10078E00D1D1A1BAECC5A300BBF5CEEFBCDBB8F15D
:10079E003A36D4AA00BAECC5A3C2F2B3C9B9A600C0
:100A7F0001140001171E011300010E00010F0501E3
:080A8F00100501110501120020
:100982007BFF120A017F0A7E001209B9E4FD7F0390
:10099200120A187BFF7A0679EE120A017F0A7E009C
:1009A2001209B9E4FD7F04120A187A0679FF7BFF67
:0709B200120A017F0A7E001A
:1009B900D3EF9400EE94004015E4FDFC0DBD000159
:0E09C9000CED64504C70F5EF1F70E51E80E2DF
:0109D70022FD
:100A6600E4FEFDEE25E0FEEF30E003430601EFC3B2
:080A760013FF0DBD08EDAF06F2
:010A7E002255
:0A0AE9007F06120ACE7F0C020ACE2F
:030ADC0075171E6D
:0A0ADF007F30120ACE7F01020ACE1A
:0E0AC000D285C286120A668FA0D287C2872214
:0E0ACE00C285C286120A668FA0D287C2872216
:0F0AB10075A0FFC285D286D2872087FDC287221B
:040A1400E4FD7F017D
:100A1800AC05AB07BB0107EC4480FF120ACEBB0252
:100A280007EC4490FF120ACEBB0309EC448024086B
:100A3800FF120ACEBB0409EC44902408FF120ACE28
:010A4800228B
:1009D800E51375F00A842430F50875092EE51375BA
:1009E800F00A84E5F02430F50AE4F50B7D037F0274
:0909F800120A187B007A0079084C
:100A0100120A98FF600C120AC0740129F9E43AFA3B
:030A110080EE2252
:1007AE00E516C3940A5068120A147A06794E120995
:1007BE00B0E4FD7F02120A187BFF7A0679601209F7
:1007CE00B2E50E2430F508E4F5097D071209F6E4CA
:1007DE00FD7F03120A187BFF7A0679701209B2E5C3
:1007EE000F2430F508E4F5097D077F031209F8E4BC
:1007FE00FD7F04120A187BFF7A06797F1209B2E593
:10080E00102430F508E4F5097D077F041209F8E598
:10081E0016B40A03120ADFE516C3940B404A120AF5
:10082E00147BFF7A06798D1209B2E5112430F50892
:10083E00E4F5097D077F011209F8E4FD7F02120A33
:10084E00187BFF7A06799B1209B2E5122430F5085F
:10085E00E4F5097D071209F6E4FD7F03120A187B01
:09086E00FF7A0679A91209B222F1
:10000E0020B20A30B2FD1209B5050E803220B30AB5
:10001E0030B3FD1209B5050F802520B40A30B4FDAA
:10002E001209B50510801820B50A30B5FD1209B5B4
:10003E000511800B20B60830B6FD1209B505123039
:10004E008003020169E50ED3940050030201691585
:10005E000E120ADCE517B40602C295E517B40502C6
:10006E00D295E5177037C395134003020166120A45
:10007E00DF120A147BFF7A0679B81209B2E4FD7F0B
:10008E0002120A187BFF7A0679C91209B21209D830
:10009E007F707E171209B9E4F513020166120A1475
:1000AE007BFF7A0679D61209B2E4FD7F02120A1896
:1000BE007A0679E1120982E518700E7D057F03122A
:1000CE0009F87F647E001209B9E518B401107D07A6
:1000DE007F04120A187B007A0079081209B2209068
:1000EE000C3090FD1209B574642513F51320910C94
:1000FE003091FD1209B574322513F51320920C3090
:10010E0092FD1209B5740A2513F513E513C3940A6B
:10011E005003020062120ADF120A147BFF7A07797B
:10012E000A1209B2E4FD7F02120A187BFF7A0779E0
:10013E00191209B2E51324F6F51575F00A84243068
:10014E00F50875092EE5151209E7C2947F707E1722
:10015E001209B9D294E4F513120ADF3081030202B8
:10016E0093E50FD394005003020293150F120ADC8D
:10017E00E517B40602C295E517B40502D295E51748
:10018E007045C3951350047F0180027F00C3EF6456
:10019E0080949E4003020290120ADF120A147BFF23
:1001AE007A0679B81209B2E4FD7F02120A187BFFB3
:1001BE007A0679C91209B21209D87F707E17120910
:1001CE00B9E4F513020290120A147BFF7A0779261E
:1001DE001209B2E4FD7F02120A187A07792F12096A
:1001EE0082E518700E7D057F031209F87F647E008C
:1001FE001209B9E518B401107D077F04120A187BA5
:10020E00007A0079081209B220900C3090FD120984
:10021E00B574642513F51320910C3091FD1209B5B8
:10022E0074322513F51320920C3092FD1209B57419
:10023E000A2513F513E513C3941E500302017E1213
:10024E000ADF120A147BFF7A07793C1209B2E4FD29
:10025E007F02120A187BFF7A0779191209B2E51389
:10026E0024E2F51575F00A842430F50875092EE59B
:10027E00151209E7C2947F707E171209B9D294E461
:10028E00F513120ADF3082030203C2E510D3940085
:10029E0050030203C2151075171E120ADFE517B4BC
:1002AE000602C295E517B40502D295E5177045C34F
:1002BE00951350047F0180027F00C3EF648094A8E1
:1002CE0040030203BF120ADF120A147BFF7A06797B
:1002DE00B81209B2E4FD7F02120A187BFF7A067982
:1002EE00C91209B21209D87F707E171209B9E4F546
:1002FE00130203BF120A147BFF7A0779491209B25F
:10030E00E4FD7F02120A187BFF7A077952120984E4
:10031E00E518700E7D057F031209F87F647E0012CA
:10032E0009B9E518B401107D077F04120A187B0085
:10033E007A0079081209B220900C3090FD1209B59E
:10034E0074642513F51320910C3091FD1209B574C8
:10035E00322513F51320920C3092FD1209B5740A52
:10036E002513F513E513C3942850030202AB120AAA
:10037E00DF120A147BFF7A07795F1209B2E4FD7F60
:10038E0002120A187BFF7A0779191209B2E51324B3
:10039E00D8F51575F00A842430F50875092EE51583
:1003AE001209E7C2947F707E171209B9D294E4F550
:1003BE0013120ADF3083030204F1E511D3940050C7
:1003CE00030204F1151175171E120ADFE517B406A4
:1003DE0002C295E517B40502D295E5177045C3958F
:1003EE001350047F0180027F00C3EF648094B240FB
:1003FE00030204EE120ADF120A147BFF7A0679B8A2
:10040E001209B2E4FD7F02120A187BFF7A0679C93F
:10041E001209B21209D87F707E171209B9E4F513CA
:10042E000204EE120A147BFF7A07796C1209B2E409
:10043E00FD7F02120A187BFF7A077975120984E58F
:10044E0018700E7D057F031209F87F647E00120975
:10045E00B9E518B401107D077F04120A187B007AE3
:10046E000079081209B220900C3090FD1209B57473
:10047E00642513F51320910C3091FD1209B57432D9
:10048E002513F51320920C3092FD1209B5740A252E
:10049E0013F513E513C3943250030203DA120ADF85
:1004AE00120A147BFF7A0779821209B2E4FD7F02E9
:1004BE00120A187BFF7A0779191209B2E51324CEB6
:1004CE00F51575F00A842430F50875092EE5151218
:1004DE0009E7C2947F707E171209B9D294E4F5131E
:1004EE00120ADF30840302064DE512D39400500346
:1004FE0002064D151275171E120ADFE517B4060215
:10050E00C295E517B40502D295E5177045C395134C
:10051E0050047F0180027F00C3EF648094BC4003CF
:10052E0002064A120ADF120A147BFF7A0679B81203
:10053E0009B2E4FD7F02120A187BFF7A0679C9120E
:10054E0009B21209D87F707E171209B9E4F51302A9
:10055E00064A120A147BFF7A07798D1209B2E4FD5E
:10056E007F02120A187BFF7A077996120984E51822
:10057E00700E7D057F031209F87F647E001209B9A3
:10058E00E518B401107D077F04120A187B007A006B
:10059E0079081209B220900C3090FD1209B57464DE
:1005AE002513F51320910C3091FD1209B5743225E7
:1005BE0013F51320920C3092FD1209B5740A25130F
:1005CE00F51320900C3090FD1209B574642513F5C7
:1005DE001320910C3091FD1209B574322513F513C9
:1005EE0020920C3092FD1209B5740A2513F513E50D
:1005FE0013C3943C5003020509120ADF120A147B3E
:10060E00FF7A0779A31209B2E4FD7F02120A187B62
:10061E00FF7A0779191209B2E51324C4F51575F09E
:10062E000A842430F50875092EE5151209E7C294DF
:10063E007F707E171209B9D294E4F513120ADF22E5
:100A4900758901758C3C758AB0D2AFD2A9D28C1246
:0D0A59000AE9120ADF1207AE12000E80F843
:03000B00020903E4
:10090300C0E0C0F0C0D0758C3C758AB00514E51406
:10091300640A7064E5187019E51775F00A842430C9
:10092300F508E51775F00A84E5F02430F509750A32
:1009330000E518B40119E51375F00A842430F508AD
:1009430075092EE51375F00A84E5F02430F50A7570
:100953000B00750C00751400E517700375171E0561
:1009630018E518B402051517751800751400051657
:0F097300E516B41403751600D0D0D0F0D0E032E2
:10088300020A49E493A3F8E493A34003F68001F238
:1008930008DFF48029E493A3F85407240CC8C33376
:1008A300C4540F4420C8834004F456800146F6DF45
:1008B300E4800B0102040810204080900A7FE47E4C
:1008C300019360BCA3FF543F30E509541FFEE4933A
:1008D300A360010ECF54C025E060A840B8E493A301
:1008E300FAE493A3F8E493A3C8C582C8CAC583CA2C
:1008F300F0A3C8C582C8CAC583CADFE9DEE780BEE4
:010A9700005E
:100A9800BB010689828A83E0225002E722BBFE025C
:090AA800E32289828A83E493228F
:00000001FF
